00000001SMITH             PAUL                       Black                         Male                          19290622         1265D                   STLC090410021040TC: MURDER 1ST - FIST                                                     Y  1956031699999999999999999999999900000000   00000000
00000002MONROE            DAVE                       White                         Male                          19120421         4212                    CAPE090110020010MURDER                                                                    Y  1950032820200328202003280070000000000000   00000000
00000003DAVIS             DANNY       J              White                         Male                          19520307         CR1871125FXJ1           JEFF229914020990BURG. 2ND                                                                 Y  1989063019920522199205220003000000000000   00000000
00000003DAVIS             DANNY       J              White                         Male                          19520307         90CR5442                STLO22991402099 BURGLARY SECOND DEGREE                                                    YCC1990121419940911199305110004000000000000   00000000
00000003DAVIS             DANNY       J              White                         Male                          19520307         90CR5442                STLO22061403006 POSSESSION OF BURGLAR'S TOOLS                                             YCC1990121419940911199305110004000000000000   00000000
00000004PILLOW            CHARLES     F              White                         Male                          19050304         380                     JACK090410030040MURDER 2ND - BEATING                                                      Y  1941101619711022196304220030000000000000   00000000
00000006DOWNS             MICHAEL     J              White                         Male                          1964040519      F09DK-CR00459-01     DEKADEKA299923013990TAMPERING WITH A MOTOR VEHICLE-1ST DEGREE                                 N  0000000020150826000000000005000020100827SES00050000
00000006DOWNS             MICHAEL     J              White                         Male                          1964040519      FCR19219FX           CLAYCLAY299923010991ATT. TO COMMIT THE OFFENSE OF TAMPERING 1ST DEGREE                        Y  1992060519950323199503230003000000000000   00000000
00000007BROWNING          FLOYD       E              White                         Male                          19450611         CR4841134FX             NEWT119911998990SEXUAL ASSAULT                                                            Y  1985020419851222198508220001000000000000   00000000
00000007BROWNING          FLOYD       E              White                         Male                          19450611         CR4841134FX             NEWT119911998   SEXUAL ASSAULT                                                            YCC1985020419851222198508220001000000000000   00000000
00000007BROWNING          FLOYD       E              White                         Male                          19450611         CR4841134FX             NEWT119911020990RAPE                                                                      YCC1985020419891222198804220005000000000000   00000000
00000007BROWNING          FLOYD       E              White                         Male                          19450611         CR4841134FX             NEWT119911998   RAPE                                                                      YCC1985020419891222198804220005000000000000   00000000
00000007BROWNING          FLOYD       E              White                         Male                          19450611         CR4841134FX             NEWT119911998   RAPE                                                                      YCC1985020419891222198804220005000000000000   00000000
00000008RICHARDSON        JACKIE      L              White                         Male                          19430426         CR198-6F            CAMDCAMD52033109003 UNLAWFUL USE OF A WEAPON                                                  Y  0000000020010613000000000001000019990614SES00020000
00000008RICHARDSON        JACKIE      L              White                         Male                          19430426         CR1091670F              WEBS369922030990SEXUAL ABUSE 1ST DEGREE                                                   Y  1992022019931204199304040002000000000000   00000000
00000009MARTIN            LOUIE       J              White                         Male                          19290614         CR387301FX              BUTL129912010991ATTEMPTED ROBBERY                                                         Y  1987101319970415199404150010000000000000   00000000
00000009MARTIN            LOUIE       J              White                         Male                          19290614         CR387301FX              BUTL529931010990ARMED CRIMINAL ACTION                                                     YCS1987101320020414199708140005000000000000   00000000
00000010TORRENCE          DARRYL                     Black                         Male                          19530106         87102082B               STLC353232040320ILLEGAL POSSESSION OF SCHEDULE II C/S-COCAINE                             Y  1988021919890715198811150002000000000000   00000000
00000010TORRENCE          DARRYL                     Black                         Male                          19530106         87101943                STLC351232040120ILLEGAL POSSESSION OF SCHEDULE I C/S-HEROINE                              YCC1988021919890715198811150002000000000000   00000000
00000011CREWS             THOMAS      B              White                         Male                          19281003         622E                    STLC090710021070MURDER FIRST DEGREE                                                       Y  1956120199999999999999999999999900000000   00000000
00000011CREWS             THOMAS      B              White                         Male                          19281003         439E                    STLC120112010010ROBBERY FIRST DEGREE BY MEANS DDW                                         YCC1956120199999999999999999999999900000000   00000000
00000011CREWS             THOMAS      B              White                         Male                          19281003         437E                    STLC120112010010ROBBERY FIRST DEGREE BY MEAN OF DDW                                       YCC1956120199999999999999999999999900000000   00000000
00000012HURTT             JOHN        K              White                         Male                          19270819         9094                    JASP120112010010TC: ROBBERY 1ST DEGREE                                                    Y  1959051399999999999999999999999900000000   00000000
00000013PERSON            ROBERT                     Black                         Male                          19230206         XXXXXXXXXXXXXXX         DUNK119911020990RAPE                                                                      Y  1959101399999999999999999999999900000000   00000000
00000014GRIMES            ORVILLE     L           JR White                         Male                          19410324         CR382118FX              LAFA239915010990STEALING WITHOUT CONSENT                                                  Y  1984032119880408198612080004000000000000   00000000
00000015DAY               APRIL       M              Black                         Female                        19581207         581293                  STLO239915010990STEALING OVER ONE HUNDRED FIFTY ($150) DOLLARS                            Y  1988103119930428199108280005000000000000   00000000
00000015DAY               APRIL       M              Black                         Female                        19581207         581292                  STLO239915010990STEALING OVER ONE HUNDRED FIFTY ($150) DOLLARS                            YCC1988103119930428199108280005000000000000   00000000
00000015DAY               APRIL       M              Black                         Female                        19581207         520679                  STLO239915010991ATTEMPT STEALING OVER ONE HUNDRED FIFTY ($150) DOLLA                      YCC1988103119930428199108280005000000000000   00000000
00000016ESTES             DONALD      A              Black                         Male                          19380904         04OCT84109482           BOON119911080990SODOMY                                                                    Y  1985021519900108198805080005000000000000   00000000
00000016ESTES             DONALD      A              Black                         Male                          19380904         04OCT84109482           BOON119911998   SODOMY                                                                    YCC1985021519900108198805080005000000000000   00000000
00000017PAVY              JEAN                       White                         Female                        19270714         6571                    NEWM090110030990MURDER SECOND DEGREE                                                      Y  1971100199999999999999999999999900000000   00000000
00000018WALKER            LEONARD     O              Black                         Male                          19430914         CR843087                JACK139913020990ASSAULT II W/A DEADLY WEAPON                                              Y  1985091319880715198807150003000000000000   00000000
00000018WALKER            LEONARD     O              Black                         Male                          19430914         CR843087                JACK529931010990ARMED CRIMINAL ACTION                                                     YCC1985091319880715198807150003000000000000   00000000
00000019VAUGHN            GEORGE      A              White                         Male                          19611002         CR580-248FX             STOD2299        BURGLARY                                                                  Y  0000000019841014000000000000000019801015CPR00040000
00000019VAUGHN            GEORGE      A              White                         Male                          19611002         CR580-248FX             STOD2299        BURGLARY                                                                  Y  0000000019841014000000000000000019801015CPR00040000
00000020MISCHANKO         TERRY                      White                         Male                          19440310         CR184152FXJ1            JEFF280324010030RECEIVING STOLEN PROPERTY                                                 Y  1985091319940825199408250009000000000000   00000000
00000021WILLIAMS          JIMMIE      L              White                         Male                          19450115         83102954                STLC099910030990MURDER SECOND DEGREE                                                      Y  1984082419940213199102130010000000000000   00000000
00000022SHEPHERD          ROBERT      E              White                         Male                          19420601         CR841178                JACK129912010990ROBBERY I                                                                 Y  1985032119950415199204150010000000000000   00000000
00000022SHEPHERD          ROBERT      E              White                         Male                          19420601         CR841178                JACK529931010990ARMED CRIMINAL ACTION                                                     YCS1985032119950414199504140003000000000000   00000000
00000023HOWARD            EARL                       Black                         Male                          1945030104      FCR852030B               JACK229914020990BURGLARY 2ND DEGREE                                                       Y  1985093019870918198701180002000000000000   00000000
00000024HANKINS           ROY         D              White                         Male                          19400403         CR4881304FX2            GREE540447410040DRIVING WHILE INTOXICATED                                                 Y  1989020319901130199003300002000000000000   00000000
00000024HANKINS           ROY         D              White                         Male                          19400403         CR4881249FX4            GREE501529400150FAILURE TO APPEAR                                                         YCC1989020319901130199003300002000000000000   00000000
00000025BUNCH             HERBERT     L              White                         Male                          19300329         589CF08873              GREE119911080990RAPE                                                                      Y  1990050319950501199309010005000000000000   00000000
00000025BUNCH             HERBERT     L              White                         Male                          19300329         589CF08873              GREE119911080990SODOMY                                                                    YCC1990050319950501199309010005000000000000   00000000
00000026MCGHEE            MELVIN      A           JR Black                         Male                          19500609         12JAN90124254           BOON359932465990DELIVERY OF A CONTROLLED SUBSTANCE                                        Y  1990070919950630199310300005000000000000   00000000
00000026MCGHEE            MELVIN      A           JR Black                         Male                          19500609         12JAN90124254           BOON359932120990DELIVERY OF A CONTROLLED SUBSTANCE                                        YCC1990070919950630199310300005000000000000   00000000
00000026MCGHEE            MELVIN      A           JR Black                         Male                          19500609         12JAN90124254           BOON359932120990DELIVERY OF A CONTROLLED SUBSTANCE                                        YCC1990070919950630199310300005000000000000   00000000
00000027O'CONNOR          LONNIE      J              White                         Male                          19240424         CR48311548FX            RAY 369922090990INCEST                                                                    Y  1985022819900208198806080005000000000000   00000000
00000027O'CONNOR          LONNIE      J              White                         Male                          19240424         CR48311548FX            RAY 369922110990INCEST                                                                    YCS1985022819920507199101170003110000000000   00000000
00000028SCHMID            JAMES       L              White                         Male                          19380820         CR488666FX1             GREE119911080990SODOMY                                                                    Y  1988120919930710199007110003000000000000   00000000
00000028SCHMID            JAMES       L              White                         Male                          19380820         CRCR488666FX1           GREE119911101990SODOMY                                                                    YCS1988120919930710199207100003000000000000   00000000
00000029COLLINS           DELBERT     R              White                         Male                          19320413         CR835171                JACK209917020990ARSON SECOND DEGREE                                                       Y  1984100919880725198707250003000000000000   00000000
00000030MORGAN            PETER                      Black                         Male                          19460521         598009                  STLO239915010990STEALING ONE HUNDRED FIFTY ($150) (PRIOR OFFENDER)                        Y  1990060719950602199506020005000000000000   00000000
00000030MORGAN            PETER                      Black                         Male                          19460521         93CR1956                STLO23991501099 STEALING ONE HUNDRED FIFTY ($1150) DOLLARS OR MORE                        YCS1993092419970601199610010002000000000000   00000000
00000031CUMMINGS          FREDDIE     B              White                         Male                          19290906         CR48431FX2              GREE280324010030RECEIVING STOLEN PROPERTY                                                 Y  1984092019890919198801190005000000000000   00000000
00000031CUMMINGS          FREDDIE     B              White                         Male                          19290906         CR484818FX1             GREE280324010030RECEIVING STOLEN PROPERTY                                                 YCS1987032019950610199302100007000000000000   00000000
00000032HARDING           JOHN        F              White                         Male                          19410823         CR686821FX              DEKA540447410040DRIVING WHILE INTOXICATED - THIRD OFFENSE                                 Y  1989081019920125199011300002000019870126SES00050000
00000032HARDING           JOHN        F              White                         Male                          19410823         CR186-758               PLAT5404        DWI                                                                       Y  0000000019880206000000000000000019870416CPR00010000
00000033PETTY             LORENZO                    Black                         Male                          19490521         781478                  STLC520231020020CARRYING CONCEALED WEAPON                                                 Y  1979070619911212199103120003000000000000   00000000
00000034CRISP             JOHN        D              White                         Male                          19440407         CR38343FX               COLE229914998990BURGLARY                                                                  Y  1983063019850428198408280002000000000000   00000000
00000034CRISP             JOHN        D              White                         Male                          19440407         CR38343FX               COLE229914010990BURGLARY                                                                  YCC1983063019850428198408280002000000000000   00000000
00000034CRISP             JOHN        D              White                         Male                          19440407         CR-3-79-406-FX          BUTL2606        PAS/BD/CHK                                                                Y  0000000019811212000000000000000019791213SES00010000
00000034CRISP             JOHN        D              White                         Male                          19440407         CR-3-79-1204-F          BUTL2606        PAS/BD/CHK                                                                Y  0000000019811212000000000000000019791213SES00010000
00000034CRISP             JOHN        D              White                         Male                          19440407         CR-3-79-1205-F          BUTL2606        PAS/BD/CHK                                                                Y  0000000019811212000000000000000019791213SES00010000
00000034CRISP             JOHN        D              White                         Male                          19440407         CR-3-79-1405-F          BUTL2606        PAS/BD/CHK                                                                Y  0000000019811212000000000000000019791213SES00010000
00000035FITZPATRICK       LARRY       W              White                         Male                          19441202         CR686358FX              BUCH229914020990BURGLARY IN THE 2ND DEGREE                                                Y  1986111019900721198903210004000000000000   00000000
00000036CLAYBORN          LOUIS       A           JR Black                         Male                          19500826         83101532                STLC099910030990MURDER SECOND DEGREE                                                      N  1984020319990106199401060015000000000000   00000000
00000037LOVINS            CAROL       J              White                         Female                        19440229         8914032B                STLC239915010990STEALING FROM A PERSON                                                    Y  1990070619920511199109110002000000000000   00000000
00000037LOVINS            CAROL       J              White                         Female                        19440229         8914032B                STLC239915998990STEALING FROM A PERSON                                                    YCC1990070619920511199109110002000000000000   00000000
00000038JOHNSON           GARY        R              White                         Male                          19510109         05SEP89122944           BOON229914020990BURGLARY IN THE SECOND DEGREE                                             Y  1990021319940904199301040005000000000000   00000000
00000039SMITH             RUDOLPH                    Black                         Male                          19450527         CR882243                JACK239915010990STEALING FROM THE PERSON                                                  Y  1988042619900404198908040002000000000000   00000000
00000040PATTON            ROBERT      C              Black                         Male                          19360303         CR284104FX              CHAR139913020990ASSAULT FIRST DEGREE                                                      Y  1985011019910901198905010007000000000000   00000000
00000042LEWIS             LYNDAL      D              White                         Male                          19510502         CR58289FX               RIPL359932260990ATTEMPTING TO OBTAIN BY FRAUD, PERCODAN, A C/S                            Y  1984011619890116198705160005000000000000   00000000
00000043GROSS             HENRY       W              White                         Male                          19530702         CR58821FX               STFR209917020990ARSON 2ND DEGREE                                                          Y  1989012719921009199210090004000000000000   00000000
00000043GROSS             HENRY       W              White                         Male                          19530702         901035135               STLC23991501099 STEALING FROM A PERSON                                                    YCC1991060319911213199108140001000000000000   00000000
00000044MCCLAIN           RONNIE      A              Black                         Male                          19510622         83100766                STLC129912020990ROBBERY SECOND DEGREE                                                     Y  1983101319880313198803130005000000000000   00000000
00000045MCCRACKEN         STEPHEN     A              White                         Male                          19520106         CR8004619               JACK111422030990SEXUAL ABUSE FIRST DEGREE                                                 Y  1981042719830321198303210002000000000000   00000000
00000046VESSELS           PAUL        B           JR White                         Male                          19510801         96CR-004506 (9)     STLOSTLO258918010890FORGERY: UTTERING AS GENUINE (120 DAY)                                    Y  1998051520040607200406070005000020010608SES00030000
00000046VESSELS           PAUL        B           JR White                         Male                          19510801         96CR-004506 (9)     STLOSTLO258918010890FORGERY: UTTERING AS GENUINE (120 DAY)                                    Y  1998051520040607200406070005000019980515SES00050000
00000046VESSELS           PAUL        B           JR White                         Male                          19510801         96CR-004506 (9)     STLOSTLO258918010890FORGERY: UTTERING AS GENUINE (120 DAY)                                    YCC1998051520040607200406070005000020010608SES00030000
00000046VESSELS           PAUL        B           JR White                         Male                          19510801         96CR-004506 (9)     STLOSTLO258918010890FORGERY: UTTERING AS GENUINE (120 DAY)                                    YCC1998051520040607200406070005000019980515SES00050000
00000046VESSELS           PAUL        B           JR White                         Male                          19510801         96CR-004506 (9)     STLOSTLO258918010890FORGERY: UTTERING AS GENUINE (120 DAY)                                    YCC1998051520040607200406070005000020010608SES00030000
00000046VESSELS           PAUL        B           JR White                         Male                          19510801         96CR-004506 (9)     STLOSTLO258918010890FORGERY: UTTERING AS GENUINE (120 DAY)                                    YCC1998051520040607200406070005000019980515SES00050000
00000046VESSELS           PAUL        B           JR White                         Male                          19510801         552481                  STLC239915010990STEALING OVER ONE HUNDRED FIFTY ($150) DOLLARS                            Y  1986120519871009198706090001000000000000   00000000
00000046VESSELS           PAUL        B           JR White                         Male                          19510801         CR1851149FX             STCH239915010990FELONIOUS STEALING                                                        YCC1986120119871009198706090001000000000000   00000000
00000047HIESTAND          DEWEY                      White                         Male                          19380307         84103041                STLC119911020990RAPE                                                                      Y  1985080919891209198804090005000000000000   00000000
00000047HIESTAND          DEWEY                      White                         Male                          19380307         84103041                STLC119911032   RAPE                                                                      YCC1985080919891209198804090005000000000000   00000000
00000047HIESTAND          DEWEY                      White                         Male                          19380307         525708                  STLO119911020990SEXUAL ASSAULT FIRST DEGREE                                               YCC1986021819891209198804090005000000000000   00000000
00000047HIESTAND          DEWEY                      White                         Male                          19380307         525708                  STLO119911011990RAPE                                                                      YCC1986021819891209198804090005000000000000   00000000
00000048MORRIS            JAMES       L              White                         Male                          19510729         CR282193FX              LINC540148865010LEAVING THE SCENE OF AN ACCIDENT                                          Y  1984011319860105198505050002000000000000   00000000
00000049HYDE              GLENDON     L              White                         Male                          19480729         CR7402                  PLAT35303207030 SALE OF A CONTROLLED SUBSTANCE                                            Y  1974051519890309198212090015000000000000   00000000
00000050MUELLER           KURT        H              White                         Male                          19421211         86101813                STLC139913031990ASSAULT SECOND DEGREE                                                     Y  1986111919870704198703040001000000000000   00000000
00000051DUDLEY            RENELL                     Black                         Male                          19521231         490CF01993              GREE351232040120POSSESSION OF HEROIN                                                      Y  1990073119940425199212250004000000000000   00000000
00000053SCROGGINS         IVA         M              Black                         Female                        19290605         C41380                  JACK090410031040PG:MURDER SECOND DEGREE                                                   Y  1972032719910612198302120020000000000000   00000000
00000054RICE              TIMOTHY     A           SR White                         Male                          19510925         CR853561                JACK229914020990BURG. 2                                                                   Y  1986012419920505199205050004000019860124SES00050000
00000054RICE              TIMOTHY     A           SR White                         Male                          19510925         CR853558                JACK229914020990BURGLARY SECOND DEGREE                                                    YCC1986012419920505199205050004000019860124SES00050000
00000054RICE              TIMOTHY     A           SR White                         Male                          19510925         CR853560                JACK229914020990BURGLARY 2ND                                                              YCC1986012419920505199205050004000019860124SES00050000
00000054RICE              TIMOTHY     A           SR White                         Male                          19510925                                 JACK1199        ASLTWITRPR                                                                Y  0000000019761102000000000000000019731102SES00020000
00000054RICE              TIMOTHY     A           SR White                         Male                          19510925                                 JACK1199        ASSW/IRAPE                                                                Y  0000000019810228000000000000000019760301SES00050000
00000055MANTIA            RODNEY      W              White                         Male                          19530226         91CR7421K               STLO369922030990SEXUAL ABUSE FIRST DEGREE                                                 Y  1992031719961201199504010005000000000000   00000000
00000056MOORE             WILLIAM                    Black                         Male                          19480803         81101850A               STLC129912020990ROBBERY SECOND DEGREE                                                     Y  1982012219860601198306010005000000000000   00000000
00000057HILL              BOOKER      T           JR Black                         Male                          19540619         CR1891012FX             CLAY229914020991ATTEMPT BURGLARY IN THE SECOND DEGREE                                     Y  1990051619940325199211250004000000000000   00000000
00000057HILL              BOOKER      T           JR Black                         Male                          19540619         CR80 00361              JACK2299        BURG. II                                                                  Y  0000000019820410000000000000000019800411SES00020000
00000058KING              DAVID       Y              White                         Male                          19540523         CR1831496FXJ3           JEFF229914020990BURGLARY SECOND DEGREE                                                    Y  1984121819870205198702050002000000000000   00000000
00000060SCOTT             JACQUELINE  L              Black                         Female                        19501018         CR871057                JACK260619010060PASSING BAD CHECKS                                                        Y  1989072119920718199207180003000000000000   00000000
00000061ROGERS            LUCILLE                    White                         Female                        19330919         97CR-6548           STLOSTLO239915010990STEALING FELONY                                                           Y  0000000020031119000000000001000019981120SES00050000
00000061ROGERS            LUCILLE                    White                         Female                        19330919         01CR-781            STLOSTLO230315030030STEALING UNDER $150                                                       YCC0000000020040204000000000002000020020205SES00020000
00000061ROGERS            LUCILLE                    White                         Female                        19330919         539579                  STLO258918010890FORGERY: MAKING OR ALTERING A WRITING                                     Y  1986101019951221199512210007000019860321SES00050000
00000061ROGERS            LUCILLE                    White                         Female                        19330919         540752                  STLO239915010990STEALING OVER $150 BY DECEIT                                              YCC1987012619931220199312200005000000000000   00000000
00000061ROGERS            LUCILLE                    White                         Female                        19330919         540752                  STLO239915010990STEALING OVER $150 BY DECEIT                                              YCC1987012619931220199312200005000000000000   00000000
00000061ROGERS            LUCILLE                    White                         Female                        19330919         541995                  STLO239915010990STEALING OVER $150 BY DECEIT                                              YCC1987012619931220199312200005000000000000   00000000
00000061ROGERS            LUCILLE                    White                         Female                        19330919         83102492                STLC129912020990ROBBERY 2ND DEGREE                                                        YCC1986100319931220199312200005000000000000   00000000
00000061ROGERS            LUCILLE                    White                         Female                        19330919         564773                  STLO280324010030RECEIVING STOLEN PROPERTY                                                 YCC1988010619901221199012210002000000000000   00000000
00000061ROGERS            LUCILLE                    White                         Female                        19330919         FCR8905503              STLO239915034990STEALING THIRD OFFENSE                                                    YCC1993062819940521199309210002000000000000   00000000
00000063PLEAS             JOHNNY      E              Black                         Male                          19541107         87100213                STLC249915020990STEALING A MOTOR VEHICLE                                                  Y  1987080319880211198710110001000000000000   00000000
00000064JONES             MAJOR       A              Black                         Male                          19540904         CR895402B               JACK229914020990BURGLARY SECOND DEGREE                                                    Y  1989111419910120199101200001000000000000   00000000
00000064JONES             MAJOR       A              Black                         Male                          19540904         CR895402B               JACK239915010990STEALING OVER $150                                                        YCC1989111419910120199101200001000000000000   00000000
00000065MICELI            LILLIAN                    White                         Female                        19200417         349155                  STLO091010040100MANSLAUGHTER                                                              Y  1975062719870508198303070010000000000000   00000000
00000066FORD              WILLIE      L              Black                         Male                          1951051008C     FCR852588                JACK229914010990BURGLARY FIRST DEGREE                                                     Y  1988120819950601199302010007000000000000   00000000
00000066FORD              WILLIE      L              Black                         Male                          1951051008C     FCR852588                JACK129912020990ROBBERY SECOND DEGREE                                                     YCC1988120819950601199302010007000000000000   00000000
00000068GWATNEY           DAVID       D              White                         Male                          19520527         1922                    HARR139913998990FELONIOUS ASSAULT                                                         Y  1974061119860710198510100003000000000000   00000000
00000068GWATNEY           DAVID       D              White                         Male                          19520527                                 HARR1399        FELASSAULT                                                                Y  0000000019771021000000000000000019741021SES00030000
00000070WELLS             ROBERT      L              White                         Male                          19500630         CR3863F                 DALL356032070600SALE OF MARIJUANA                                                         Y  1986051919960516199305160010000000000000   00000000
00000071VALENTINE         DANNY       R              White                         Male                          19541206         85100656                STLC356032070600ILLEGAL SALE OF SCHEDULE I C/S MARIJUANA                                  Y  1985062619891128198803280005000000000000   00000000
00000071VALENTINE         DANNY       R              White                         Male                          19541206         8412144                 STLC359932070990ILLEGAL SALE SCHEDULE II CONT. SUBSTANCE HYDROMORPHO                      YCC1985031919891128198803280005000000000000   00000000
00000071VALENTINE         DANNY       R              White                         Male                          19541206         8412144                 STLC359932070   ILLEGAL SALE SCHEDULE II CONT. SUBSTANCE HYDROMORPHO                      YCC1985031919891128198803280005000000000000   00000000
00000071VALENTINE         DANNY       R              White                         Male                          19541206         83101840                STLC356232040620ILL. POSS. SCHEDULE I C/S MARIJUANA OVER 35 GRAMS                         YCC1985031919891128198803280005000000000000   00000000
00000071VALENTINE         DANNY       R              White                         Male                          19541206         84102768                STLC356032070600ILLEGAL SALE OF SCHEDULED I C/S, MARIJUANA                                YCC1985031919891128198803280005000000000000   00000000
00000071VALENTINE         DANNY       R              White                         Male                          19541206         84102768                STLC356032070   ILLEGAL SALE OF SCHEDULE I C/S MARIJUANA                                  YCC1985031919891128198803280005000000000000   00000000
00000071VALENTINE         DANNY       R              White                         Male                          19541206         84102988A               STLC356232040620ILL. POSS. OF SCHEDULE I C/S MARIJUANA OVER 35 GRAMS                      YCC1985031919891128198803280005000000000000   00000000
00000072WISE              KEVIN                      Black                         Male                          19561207         97CR-6897               STLO289924010990RECEIVING STOLEN PROPERTY                                                 Y  1998060520070316200703160005000020040317SES00030000
00000072WISE              KEVIN                      Black                         Male                          19561207         97CR-6897               STLO289924010990RECEIVING STOLEN PROPERTY                                                 Y  1998060520070316200703160005000019980605SES00050000
00000072WISE              KEVIN                      Black                         Male                          19561207         84101021                STLC129912020990ROBBERY SECOND DEGREE                                                     Y  1985041219900130198805300005000000000000   00000000
00000072WISE              KEVIN                      Black                         Male                          19561207         84101021                STLC229914010990BURGLARY FIRST DEGREE                                                     YCC1985041219900130198805300005000000000000   00000000
00000072WISE              KEVIN                      Black                         Male                          19561207         84101021                STLC139913030990ASSAULT SECOND DEGREE                                                     YCC1985041219900130198805300005000000000000   00000000
00000074STEWART           THERESA                    Black                         Female                        19570518         CR863726A               JACK258918010890FORGERY: UTTERING AS GENUINE                                              Y  1989012019940524199405240003000019890525SES00050000
00000074STEWART           THERESA                    Black                         Female                        19570518         CR863726A               JACK258918010890FORGERY: UTTERING AS GENUINE                                              Y  1989012019940524199405240003000019860911SES00030000
00000074STEWART           THERESA                    Black                         Female                        19570518         CR80 01235              JACK3562        POSS/MARIJ                                                                Y  0000000019820727000000000000000019800728SES00020000
00000075TAYLOR            ROBERT      L              White                         Male                          19530814         CR184240FXJ3            JEFF119911080990SODOMY                                                                    Y  1984091019891216198912160005000000000000   00000000
00000076GREENE            FREDERICK   C              Black                         Male                          19510411         CR902171                JACK359932070990SALE OF A SCHEDULE II CONTROLLED SUBSTANCE                                Y  1990091019950822199312220005000000000000   00000000
00000076GREENE            FREDERICK   C              Black                         Male                          19510411         CR904140B               JACK529931020990UNLAWFUL USE OF A WEAPON                                                  YCC1990091019950822199312220005000000000000   00000000
00000077DERIENZO          MICHAEL     A              White                         Male                          19560617         92CR51501               STLO239915010990STEALING ONE HUNDRED FIFTY ($150) DOLLARS OR MORE                         Y  1993021919950904199409040003000000000000   00000000
00000077DERIENZO          MICHAEL     A              White                         Male                          19560617         91CR57702               STLO299923010990TAMPERING FIRST DEGREE                                                    YCC1993021919950904199409040003000000000000   00000000
00000077DERIENZO          MICHAEL     A              White                         Male                          19560617         583828                  STLO258918010890FORGERY: UTTERING AS GENUINE                                              Y  1989020119911227199104100003000000000000   00000000
00000077DERIENZO          MICHAEL     A              White                         Male                          19560617         8914021                 STLC239915010990STEALING OVER $150.00                                                     YCC1990090519920112199201120002000000000000   00000000
00000078DOUGHERTY         HERBERT     C              Black                         Male                          19590101         98CR-000237 (J)     STLOSTLO239915034990STEALING: THIRD OFFENSE                                                   Y  1998081420030424200304240004000000000000   00000000
00000078DOUGHERTY         HERBERT     C              Black                         Male                          19590101         87101872                STLC520231020020UNLAWFUL USE OF A WEAPON (CARRYING A CONCEALED WEAPO                      Y  1987092319890607198810070002000000000000   00000000
00000078DOUGHERTY         HERBERT     C              Black                         Male                          19590101         84101222                STLC239915010990STEALING OVER $150.00                                                     YCC1987122219890607198810070002000000000000   00000000
00000078DOUGHERTY         HERBERT     C              Black                         Male                          19590101         557057                  STLO299923010990TAMPERING FIRST DEGREE                                                    YCC1987081919890607198810070002000000000000   00000000
00000079HOOK              LISA ROSE                  White                         Female                        19530403         99CR-2834           STLOSTLO359932450990POSSESSION OF CONTROLLED SUBSTANCE                                        Y  0000000020060409000000000005000020010410SES00050000
00000079HOOK              LISA ROSE                  White                         Female                        19530403         CR480-271F              HOWE2589        FORGERY                                                                   Y  0000000019850221000000000000000019830222SES00020000
00000079HOOK              LISA ROSE                  White                         Female                        19530403         CR480-271F              HOWE2589        FORGERY                                                                   Y  0000000019850221000000000000000019800929SES00030000
00000079HOOK              LISA ROSE                  White                         Female                        19530403         801 1834                STLC2599        FORGERY                                                                   Y  0000000019811218000000000000000019801219SES00010000
00000079HOOK              LISA ROSE                  White                         Female                        19530403         460513                  STLC229914020990CT 1 BURGLARY 2ND DEGREE                                                  Y  1982012619850119198301200003000000000000   00000000
00000079HOOK              LISA ROSE                  White                         Female                        19530403         460513                  STLC239915010990CT II STEALING OVER $150                                                  YCC1982012619851019198301200003000000000000   00000000
00000080KNIGHT            KARL        D              White                         Male                          19510709         CR484590FX              NEWT356032070600SALE OF MARIJUANA                                                         Y  1985010819900105198805050005000000000000   00000000
00000080KNIGHT            KARL        D              White                         Male                          19510709         CR484590FX              NEWT359932070990SALE OF MARIJUANA                                                         YCC1985010819900105198805050005000000000000   00000000
00000081GRANT             GEORGE      R           JR Black                         Male                          19540726         CR28739FX               MACO356032040600SELLING MARIHUANA                                                         Y  1987070819921117199211170005000019871116SES00050000
00000082REEVES            DAWN        K              White                         Female                        19671022         CR1099-521M         MORGMORG139913040   ASSAULT IN THE THIRD DEGREE                                               Y  0000000020010809000000000001000019990810SES00020000
00000082REEVES            DAWN        K              White                         Female                        19671022         CR1099-521M         MORGMORG489927040   RESISTING ARREST                                                          YCC0000000020010809000000000001000019990810SES00020000
00000083THORNTON          EARVEN                     Black                         Male                          19600220         81100282                STLC351232040120ILL POSS SCHED I C S HEROIN                                               Y  1981091119920404198704040005000000000000   00000000
00000083THORNTON          EARVEN                     Black                         Male                          19600220         8110282                 STLC359932040990ILL POSS SCHED IV C S                                                     YCC1981091119870404198704040005000000000000   00000000
00000083THORNTON          EARVEN                     Black                         Male                          19600220         80103721                STLC353232040320ILL POSS SCHED II C S COCAINE                                             YCC1981091119920404198704040005000000000000   00000000
00000083THORNTON          EARVEN                     Black                         Male                          19600220         80103721                STLC351232070100ILL SALE SCHED I C S HEROIN                                               YCC1981091119920404198704040005000000000000   00000000
00000084SPURLIN           FRANKIE     M              White                         Female                        19270903         546                     MISS091010040100MANSLAUGHTER                                                              Y  1978060719851113198212170010000000000000   00000000
00000085FRAZIER           DAVID       T              White                         Male                          1956032625      F04F6-CR01486-01         DUNK359932465990DIST/DEL/MANF/PROD OR ATTMPT TO OR POSS W/INT TO DIST/DEL/MANF/PROD A C/S Y  2005042720110219201102190006000000000000   00000000
00000085FRAZIER           DAVID       T              White                         Male                          1956032625      F05NM-CR00194-01         NEWM359932465990DIST/DEL/MANF/PROD OR ATTMPT TO OR POSS W/INT TO DIST/DEL/MANF/PROD A C/S NCC2005051020130308201303080008000000000000   00000000
00000085FRAZIER           DAVID       T              White                         Male                          1956032625      F479                     MISS099910020990MURDER FIRST DEGREE - BEAT WITH CHANNEL                                   Y  1977120799999999999999999999999900000000   00000000
00000087FITZGERALD        NORMA       F              White                         Female                        19551219         CR184945FXJ1            JEFF409921050990PROMOTING PROSTITUTION 3RD                                                Y  1989062920030906200309060002000000000000   00000000
00000088CHAPMAN           JEROME                     Black                         Male                          19600808         8911159                 STLC350432450040POSSESSION OF CONTROLLED SUBSTANCE PHENCYCLIDINE                          Y  1991062519930911199209110003000000000000   00000000
00000089SPEARS            DARRELL     L              Black                         Male                          19600309         590683                  STLO229914020990BURGLARY SECOND DEGREE                                                    Y  1991022219950311199307110005000000000000   00000000
00000089SPEARS            DARRELL     L              Black                         Male                          19600309         90CR4890                STLO50152937015 FAILURE TO APPEAR                                                         YCC1991022219951102199403020005000000000000   00000000
00000090MOWERY            BENNY       R              White                         Male                          19590711         CR58928F                OREG369922030990SEXUAL ABUSE FIRST DEGREE                                                 Y  1989112919921128199111280003000000000000   00000000
00000091SPIVEY-WOODS      LIESL       A              Black                         Female                        1962042107C     F10SL-CR01369-01     STLOSTLO359932450990POSSESSION CONTROLLED SUBSTANCE                                           N  0000000020151215000000000007000020101216SES00050000
00000091SPIVEY-WOODS      LIESL       A              Black                         Female                        1962042107C     F456385                  STLO129912010990ROBBERY FIRST DEGREE    .                                                 Y  1982011319920913199209130010000000000000   00000000
00000091SPIVEY-WOODS      LIESL       A              Black                         Female                        1962042107C     F456383                  STLO129912010990ROBBERY 1ST DEGREE                                                        YCC1982011319920913199209130010000000000000   00000000
00000091SPIVEY-WOODS      LIESL       A              Black                         Female                        1962042107C     F456385                  STLO129912010990ROBBERY FIRST DEGREE                                                      YCC1982011319920913199209130010000000000000   00000000
00000091SPIVEY-WOODS      LIESL       A              Black                         Female                        1962042107C     F456385                  STLO129912010990ROBBERY FIRST DEGREE                                                      YCC1982011319920913199209130010000000000000   00000000
00000091SPIVEY-WOODS      LIESL       A              Black                         Female                        1962042107C     F456385                  STLO129912010990ROBBERT FIRST DEGREE                                                      YCC1982011319920913199209130010000000000000   00000000
00000091SPIVEY-WOODS      LIESL       A              Black                         Female                        1962042107C     F871032252               STLC490128080010FAILURE TO RETURN TO CONFINEMENT                                          YCS1988072519940828199312280002000000000000   00000000
00000092POUNDS            DONALD      W              White                         Male                          1960012417      F06BT-CR00496-01     BUTLBUTL359932465990DIST/DEL/MANF/PROD OR ATTMPT TO OR POSS W/INT TO DIST/DEL/MANF/PROD A CS  N  2006051620140222201402220008000000000000   00000000
00000092POUNDS            DONALD      W              White                         Male                          1960012417      F430889                  STLO353032465990SALE OF A CONT SUB SCH II COCAINE                                         Y  1980112619901026198303100005000019800425SES00050000
00000092POUNDS            DONALD      W              White                         Male                          1960012417      F428500                  STLO353032465030SALE OF A CONT SUB COCAINE SCH I                                          YCC1980112619901026198303100005000019800425SES00050000
00000092POUNDS            DONALD      W              White                         Male                          1960012417      F430889                  STLO353032465030SALE OF A CONT SUB SCH II COCAINE                                         YCC1980112619851025198303100005000000000000   00000000
00000093SHANNON           MARY        E              White                         Female                        19400413         CR58110FX               STFR139913020990ASSAULT 1ST DEGREE                                                        Y  1982022619940224199102240012000000000000   00000000
00000094RODRIQUEZ         JERRY       G              Unknown                       Male                          19600413         CR780501                JACK280324010030RECEIVING STOLEN PROP OVER FIFTY DOLLARS                                  YCC1978060619811213198112130005000000000000   00000000
00000094RODRIQUEZ         JERRY       G              Unknown                       Male                          19600413         CR780502                JACK229914020990BURGLARY SECOND DEGREE                                                    YCC1978060619811213198112130005000000000000   00000000
00000094RODRIQUEZ         JERRY       G              Unknown                       Male                          19600413         CR780502                JACK239915010990STEALING                                                                  YCC1978060619811213198112130005000000000000   00000000
00000094RODRIQUEZ         JERRY       G              Unknown                       Male                          19600413         CR780500                JACK241115020110DRIVING A MV WITHOUT CONSENT OF OWNER                                     YCC1978060619811213198112130005000000000000   00000000
00000094RODRIQUEZ         JERRY       G              Unknown                       Male                          19600413         C78109                  STCL239915010990STEALING PROP IN EXCESS OF FIFTY DOLLARS                                  YCC1978071300000000198112130005000000000000   00000000
00000094RODRIQUEZ         JERRY       G              Unknown                       Male                          19600413         C78112                  STCL239915010990STEALING PROP IN EXCESS OF FIFTY DOLLARS                                  YCC1978071300000000198112130005000000000000   00000000
00000095MURPHY            JOYCE                      White                         Female                        19421108         CR280391FX              CRAW280324010990RECEIVING STOLEN PROPERTY                                                 Y  1982030119850228198402290003000000000000   00000000
00000097PATTERSON         PERCY                   JR Black                         Male                          19440608         781344                  STLC129912010990ROBBERY FIRST DEGREE                                                      Y  1979061419850526198402060005000000000000   00000000
00000097PATTERSON         PERCY                   JR Black                         Male                          19440608         781502                  STLC139913998990ASSAULT WITH INTENT TO KILL W MALICE AFO                                  YCC1979061419820526198111260002000000000000   00000000
00000097PATTERSON         PERCY                   JR Black                         Male                          19440608         781344                  STLC129912010990ROBBERY FIRST DEGREE                                                      YCS1979061419890205198711050005000000000000   00000000
00000099TORRE             JOHN        J              White                         Male                          19570207         CR78589F                LIVI529931020990UNLAWFUL USE OF WEAPON                                                    Y  1986033119890327198803270003000000000000   00000000
00000100HAMMONDS          TERRY       L              Black                         Male                          19601130         446841                  STLO129912010   ROBBERY FIRST DEGREE                                                      Y  1985041220000410200004100015000019850726SES00050000
00000100HAMMONDS          TERRY       L              Black                         Male                          19601130         446841                  STLO129912010991ATTEMPT ROBBERY FIRST DEGREE                                              YCC1985041219950410199504100010000019850726SES00050000
00000101SELBE             FRANKLIN                   White                         Male                          19230619         79101337                STLC091010040100MANSLAUGHTER                                                              YCC1980012519840401198204090005000000000000   00000000
00000101SELBE             FRANKLIN                   White                         Male                          19230619         79101337                STLC139913030990ASSAULT SECOND DEGREE                                                     YCC1980012519840401198204090003000000000000   00000000
